:02000002D0002C
:1040000000400D0078700D00000006000C00050156
:084010000401DE0500000000C0
:04401800AC690D0082
:10401C0009480A49884208B505D0094A824202D0AB
:10402C00121A02F0A1FB0748074A0021121A02F0EB
:10403C00A6FB014808BD00BFA8DE0320C46F0D001D
:10404C0034DF032034DF0320F0E7032070B501F0E8
:10405C0009F8074C074BE41AA40800251E46A54294
:10406C0004D056F8253098470135F8E770BD00BFED
:10407C00BC6F0D00806F0D0000F05CB808B500F04F
:10408C00FFF8BDE8084000F0AFBF00F021BD00F024
:10409C0027BD00F025BD0078B0FA80F040097047CC
:1040AC000123037070471068704710B50446043044
:1040BC0000F0C6FD204610BD10B504463C3000F0A3
:1040CC00BFFD04F1280000F0BBFD204600F0B8FD58
:1040DC00204610BD10B5036804469B689847A3683A
:1040EC00013BA3602BB923682046DB68BDE8104078
:1040FC00184710BD10B5064B03600446806928B103
:10410C004368013B43600BB9FFF7E4FF204610BD49
:10411C00546D0D0010B50446FFF7ECFF204610BDA2
:10412C0010B50446FFF7E6FF20461C2102F0ACF95F
:10413C00204610BD10B5204B86B01888012102F026
:10414C00F3F80121002002F0EFF80021132002F017
:10415C00EBF800240C230394ADF80C30174B0493AC
:10416C00042203AB16491748059400F091FC234632
:10417C0002221549154800F08BFC154B15491B788C
:10418C008DF8003003A83C23224601F0D9F804989E
:10419C0028B14368013B43600BB9FFF79BFF01213A
:1041AC00002002F0D2F801F037FB4FF4165101F069
:1041BC0027FB06B010BD00BFC4DE0320B3400D00CA
:1041CC00BCE30320676A0D0038DF0320C0690D00D3
:1041DC0088DF0320C7690D0030B5B3B00D46044627
:1041EC0001F01AFB1A4900F074FE1A491A4A2B46C0
:1041FC0012A800F085FC194902A802F0FBFA1CB1C8
:10420C00174902A802F0F6FA164C1749204600F09E
:10421C0071FD502312A904F12800A36300F06AFD7C
:10422C0002A904F13C0000F065FD104B104A00930C
:10423C002146104B104800F0FBF801F0EDFA0F4945
:10424C0000F047FE4FF47A7000F080FE33B030BDC2
:10425C00D6690D000B6A0D00E2690D00236A0D0092
:10426C00306A0D003CDF03203C6A0D004A6A0D00E9
:10427C00A8E30320ACDE03208CDF03204E6A0D0084
:10428C0010B5132002F07AF8184C50282378D4BFBC
:10429C000020012083421FD0207001F0BDFA144988
:1042AC0000F017FE134B20781968FFF795FF01F00B
:1042BC00B3FA114900F00DFE2178104B29B1012100
:1042CC00188802F042F80E4903E0188802F03DF815
:1042DC000C490D4800F00EFD132002F04FF80B4B6B
:1042EC001860BDE81040C82000F030BE89DF032004
:1042FC005D6A0D00A8DE03206D6A0D00C4DE03208C
:10430C007C6A0D00806A0D00BCE3032038DF0320BB
:10431C0070B51F4B1F4C204D204E00221A7000F020
:10432C00B3F91F49204600F0D2FC20461D4C1E4913
:10433C002A4602F09BF8204600F042F820461B4C1F
:10434C001B492A4602F092F83146204600F0BFFC89
:10435C0004F1100001F0B0F9314604F1280000F02E
:10436C00B6FC314604F13C0000F0B1FC2046114C87
:10437C0011492A4602F07AF83146201D00F0A7FCBC
:10438C002A4620460D49BDE8704002F06FB800BFC8
:10439C0088DF0320BCE3032034DF0320F86A0D0020
:1043AC00806A0D008CDF03204D4C0D003CDF032098
:1043BC0021410D00A8E30320C5400D00B7400D00BE
:1043CC0010B5044601F08EFE204610BD38B50446EB
:1043DC00154600F06BFD0549204600F067FD2946A7
:1043EC002046BDE8384000F074BD00BFC66B0D0020
:1043FC0038B50546144600F059FD0B49284600F027
:10440C0055FD002C05DA2D21284600F053FD6142A4
:10441C0000E0214628460A2200F065FD2846BDE84A
:10442C00384000F04ABD00BFC66B0D0000F02CB93F
:10443C002DE9F04F0D461E464FF0FF338FB004466A
:10444C00136000212846174600F080FCD5F8388010
:10445C0060B92968B8F1000F02D01FFA88F200E0A9
:10446C0050220023204601F08DFC14E0744B08937D
:10447C0005F1140CBCE80F000DF1240EAEE80F0092
:10448C00DCF800308EF800301FFA88F2002308A9FF
:10449C00204601F0F9FC003018BF012018B9204665
:1044AC0001F06CFDC8E01899204600F0FFFC65494E
:1044BC00204600F0FBFCA96A204600F0F7FC62499C
:1044CC00204600F0F3FC6149614A2046FFF77EFF6D
:1044DC000021284600F03AFC20B92A685D492046A4
:1044EC00FFF774FF05F13C080021404600F02EFC5C
:1044FC0008B96A6C05E05849189802F071F902463F
:10450C0018B956492046FFF773FF5EB1316849B1BF
:10451C007268204612B1FFF759FF01E000F0D9FC98
:10452C000836F3E7204600F0C8FC204601F052FBA9
:10453C000021404600F00AFC18B9E96B204600F057
:10454C00C8FC04F11C084FF480620021404602F0C4
:10455C0016F900F0E9F8814600F0E6F80026354639
:10456C0041F2883A204601F021FDD8B1204601F0F5
:10457C00C6FB834600F0D8F840F2FE339D428146DC
:10458C0003D8631983F81CB00AE040F2FF339D4254
:10459C0006D1002384F81B34204601F0EFFC0126E1
:1045AC000135DFE76319187700F0BEF8C9EB000B93
:1045BC0026B9D34502D8C82000F0C8FC204601F02B
:1045CC000AFB18B1D34501D8002ECBD0204601F000
:1045DC00D5FC4146684600F07AFB0C23092269465B
:1045EC0004A800F0D7FB1E4908A800F070FB08A92E
:1045FC00684600F0CCFB044608A800F021FB631CC5
:10460C0014D03D1D1749284600F074FB221D694645
:10461C0008A800F0DFFB08A9284600F093FB08A8C7
:10462C0000F00EFB049802F08DF8386004A800F03E
:10463C0007FB684600F004FB0FB0BDE8F08F00BF2D
:10464C00686C0D00C26B0D00BE6A0D00D06A0D00C7
:10465C00CA6A0D00DB6A0D00EF6A0D00E06A0D00FE
:10466C00F46A0D00F86A0D0008B5024B1B689B68D4
:10467C00019308BD6802030008B5024B1B68DB6898
:10468C00019308BD6802030008B5024B1B681B6848
:10469C00019308BD2C02030008B5024B1B685B6834
:1046AC00019308BD2C02030008B5024B1B689B68E4
:1046BC00019308BD2C02030008B5024B1B68DB6894
:1046CC00019308BD2C02030008B5024B1B681B6943
:1046DC00019308BD2C02030008B5024B1B681B6B31
:1046EC00019308BD2C02030008B5024B1B68DB6963
:1046FC00019308BD3002030008B5024B1B681B6A0E
:10470C00019308BD3002030008B5024B1B685B69BE
:10471C00019308BD6C02030008B5024B1B685B6873
:10472C00019308BD1802030008B5024B1B685B69B6
:10473C00019308BD1802030008B5024B1B689B6867
:10474C00019308BD4802030008B5024B1B681B69A6
:10475C00019308BD4802030008B5024B1B685B6956
:10476C00019308BD4802030008B5024B1B685B6C43
:10477C00019308BD4802030008B5024B1B689B6CF3
:10478C00019308BD4802030008B5024B1B685B6926
:10479C00019308BD6402030008B5024B1B681B6A39
:1047AC00019308BD6402030008B5024B1B689B6AA9
:1047BC00019308BD6402030008B5024B1B681B681B
:1047CC00019308BD3C02030008B5024B1B68DB6873
:1047DC00019308BD3C02030008B5024B1B681B6922
:1047EC00019308BD3C02030008B5024B1B685B69D2
:1047FC00019308BD3C02030008B5024B1B689B6982
:10480C00019308BD3C02030008B5024B1B68DB6931
:10481C00019308BD3C02030008B5024B1B681B6AE0
:10482C00019308BD3C02030008B5024B1B689B6A50
:10483C00019308BD3C02030008B5024B1B681B6AC0
:10484C00019308BD2802030008B5024B1B685B6A84
:10485C00019308BD2802030008B5024B1B689B6A34
:10486C00019308BD2802030008B5024B1B68DB6AE4
:10487C00019308BD2802030008B5024B1B681B6B93
:10488C00019308BD2802030008B5024B1B685B6B43
:10489C00019308BD2802030008B5024B1B681B6C72
:1048AC00019308BD2802030008B5024B1B689B69E5
:1048BC00019308BD3802030008B5024B1B68DB6985
:1048CC00019308BD3802030008B5024B1B681B6A34
:1048DC00019308BD3802030008B5024B1B689B6AA4
:1048EC00019308BD3802030008B5024B1B681B6B13
:1048FC00019308BD3802030008B5024B1B689B6B83
:10490C00019308BD3802030008B5024B1B681B68F5
:10491C00019308BD4C02030008B5024B1B685B6891
:10492C00019308BD4C02030008B5024B1B681B69C0
:10493C00019308BD4C02030008B5024B1B685B6970
:10494C00019308BD4C02030008B5024B1B689B6920
:10495C00019308BD4C02030008B5024B1B68DB69D0
:10496C00019308BD4C02030008B5024B1B681B6A7F
:10497C00019308BD4C02030008B5024B1B681B6D6C
:10498C00019308BD6002030008B5024B1B685B680D
:10499C00019308BD2002030008B5024B1B685B693C
:1049AC00019308BD2002030008B5024B1B68DB6CA9
:1049BC00019308BD2002030008B5024B1B685B6D18
:1049CC00019308BD2002030008B5034B1B68D3F804
:1049DC008830019308BD00002002030008B5034B8A
:1049EC001B68D3F89430019308BD0000200203002B
:1049FC0008B5024B1B685B68019308BD40020300BD
:104A0C0008B5024B1B689B68019308BD400203006C
:104A1C0008B5024B1B68DB68019308BD400203001C
:104A2C0008B5024B1B681B69019308BD40020300CB
:104A3C0008B5024B1B685B69019308BD400203007B
:104A4C0008B5024B1B689B69019308BD400203002B
:104A5C0008B5024B1B68DB69019308BD40020300DB
:104A6C0008B5024B1B681B6A019308BD400203008A
:104A7C0008B5024B1B681B6B019308BD4002030079
:104A8C0008B5024B1B685B6B019308BD4002030029
:104A9C0008B5024B1B681B68019308BD4402030058
:104AAC0008B5024B1B685B69019308BD4402030007
:104ABC0008B5024B1B681B6A019308BD4402030036
:104ACC0008B5024B1B68DB6B019308BD4402030065
:104ADC0008B5024B1B681B68019308BD1C02030040
:104AEC0008B5024B1B685B68019308BD1C020300F0
:104AFC0008B5024B1B689B68019308BD1C020300A0
:104B0C0008B5024B1B68DB68019308BD1C0203004F
:104B1C0008B5024B1B68DB6A019308BD1C0203003D
:104B2C0008B5024B1B681B6B019308BD1C020300EC
:104B3C0008B5024B1B68DB6B019308BD1C0203001C
:104B4C00002211464068FFF78BBF002211464068D7
:104B5C00FFF796BF00224068FFF78ABF002281F062
:104B6C0001014068FFF774BF00231A4619464068DC
:104B7C00FFF766BF00231A4619464068FFF758BF77
:104B8C00002211464068FFF74BBF002211464068D7
:104B9C00FFF736BF002202214068FFF739BF002320
:104BAC001A464068FFF724BF024B03225A60024AA0
:104BBC001A607047CCE30320046B0D00704710B5EE
:104BCC000C21044601F060FC204610BD10B5054BCD
:104BDC000360044601710846FFF786FD0023A360BD
:104BEC00204610BD386B0D000079FFF785BD10B560
:104BFC000446006818B1FFF773FF0023236010BD53
:104C0C0010B50446FFF7F3FF204610BD10B5094C54
:104C1C0000204FF6FF732060A080A071208163817B
:104C2C00FFF7B2FE2046044A0449BDE8104001F0EB
:104C3C001DBC00BFD4E3032034DF03200D4C0D005A
:104C4C0010B504460068FFF74BFF204610BD10B5A9
:104C5C000446006808B1FFF743FF00232360A360FC
:104C6C00636010BD38B504460D4600680131FFF78E
:104C7C003FFF10B184E82100012038BD10B5036856
:104C8C00044613B143688B4207D22046FFF7EAFF74
:104C9C0020B1A3680BB922681370012010BD70B548
:104CAC000E46114604461546FFF7E8FF18B9204694
:104CBC00FFF7CDFF09E02A463146A560206801F0D8
:104CCC0053FD2268A3680021D154204670BD38B52D
:104CDC000023044603604360836003730D4639B1BF
:104CEC00084601F0AAFD294602462046FFF7D7FFE9
:104CFC00204638BD38B505460C4641B1084601F092
:104D0C009CFD214602462846FFF7C9FF01E0FFF74C
:104D1C009EFF284638BD70B504460E4609B90020E2
:104D2C0070BD6AB18368D5182946FFF7A7FF002824
:104D3C00F5D02068A3683146184401F05BFDA560EE
:104D4C00012070BD8A680968FFF7E5BF08B5826865
:104D5C000B4612B919B9012008BD11B903681878AE
:104D6C0002E0006801F03CFDB0FA80F0400908BD9B
:104D7C0010B58368934207D904680968A01801F03C
:104D8C0064FD08B1001B10BD4FF0FF3010BD0022B8
:104D9C00FFF7EEBFF8B59A420F461D460C4988BF87
:104DAC0013461446064684BF2C461D46FFF78FFF5C
:104DBC00BA6894420AD83968954294BFC4EB05028C
:104DCC00C4EB020221443046FFF769FF3046F8BDC0
:104DDC00F86A0D0010B504468B68FFF7DBFF204620
:104DEC0010BD10B50446006808B1FFF7C5FC20469D
:104DFC0010BD10B5036804469B689847A368013B37
:104E0C00A3602BB923682046DB68BDE81040184727
:104E1C0010BD0B68036013B15A6801325A607047B9
:104E2C0010B50446006828B14368013B43600BB9D8
:104E3C00FFF7DFFF204610BD10B5064C00232046BF
:104E4C002360FFF791FC2046034A0449BDE810405B
:104E5C0001F00CBBE0E3032034DF0320EF4D0D0029
:104E6C00F8B506460D468F180024BD420CD03368A9
:104E7C0015F8011B9B6830469847002801DB044459
:104E8C00F3E7002C08BF04462046F8BD70B5054674
:104E9C000C46084649B101F0D0FC2B68024621466D
:104EAC002846DB68BDE87040184770BD08B5FFF7B1
:104EBC00EDFF08BD03689B68184738B50D21054602
:104ECC00FFF7F8FF0A2104462846FFF7F3FF2044BA
:104EDC0038BD38B50546FFF7D9FF04462846FFF71D
:104EEC00ECFF204438BD30B58BB00B4600218DF85B
:104EFC002410012A98BF0A220DF12304B3FBF2F50A
:104F0C0005FB123303F0FF03092B94BF3033373307
:104F1C00DBB2214604F801392B46002DEED1FFF708
:104F2C00B5FF0BB030BD0000014B024A1A60704750
:104F3C00E4E30320B36B0D00024B1A68024B1A60BA
:104F4C00704700BFC8DE0320E8E303200021FFF711
:104F5C0023BD10B58368044613B10322014698475C
:104F6C00204610BD10B50446FFF7F3FF204610BDD8
:104F7C0013B50B46044603C88DE8030093E8030001
:104F8C0084E803009DE8030083E8030002B010BD31
:104F9C000348044A04490023836001F067BA00BF48
:104FAC00ECE3032034DF0320714F0D0008B50C4BEC
:104FBC0033B100F031FC03681B699847002809DC09
:104FCC00084B63B100F0AAFC03681B6998470028E2
:104FDC0003DC08BDAFF30080F2E7AFF3008008BD3F
:104FEC00000000000000000008B5FFF7DFFFFFF72E
:104FFC009BFB014B186008BD30E703200248034AB5
:10500C000349121A01F0B0BB00F4032004F403208E
:10501C00C06F0D0007B5002300931A466FF077019F
:10502C00FFF7DCFC03B05DF804FB000007B5438818
:10503C000A2B08D0502B09D1094B1B683BB103B08C
:10504C005DF804EB1847FFF7E5FF06E0002300933B
:10505C001A466FF07701FFF7C1FC03B05DF804FB53
:10506C00FCE3032038B5104C104D2368AB42104BB9
:10507C000CBF012200221A7002D0FFF7BFFF25607F
:10508C00FFF74AFB044601F083FB0A4B13B12046A1
:10509C00AFF3008000210748FFF712FD00210648FE
:1050AC00BDE83840FFF790BC00F403201E1C279A83
:1050BC0000E403200000000039500D007047002070
:1050CC00704710B51021044601F0DEF9204610BDE2
:1050DC0008B508B1FFF7F5FF08BD0022026010B556
:1050EC004FF69C728280B1F9044084808A800268F9
:1050FC000C6804600A6010BD10B504460068FFF728
:10510C00EFFC204610BD38B5C468F4B12378022BEF
:10511C0003D104F10C00FFF7EFFF656835B12846A9
:10512C00FFF717FF1021284601F0AEF9A56835B13D
:10513C002846FFF70EFF1021284601F0A5F920465E
:10514C001421BDE8384001F09FB938BD13B50446B1
:10515C0091E8050000234B600B602060626001A8A1
:10516C0001930093FFF75CFE204602B010BDF7B52B
:10517C000C4602AD54F8043B45F8083D06460F4674
:10518C0001A82146FFF745FE29463046FFF7DEFF12
:10519C0001A8FFF745FE2046FFF742FE38460821DE
:1051AC0001F072F9304603B0F0BD000038B50023B1
:1051BC000446036010200D46FEF767FF28B101235B
:1051CC0043608360024B0360C5602060204638BD9D
:1051DC004C6C0D00826810B50AB901F068F9C3680F
:1051EC00BDE81040184708B5006800F11001FFF742
:1051FC00F1FF08BD826810B50AB901F058F9C3680F
:10520C00BDE81040184708B5006800F11001FFF721
:10521C00F1FF08BD38B5002383608B6804460D464A
:10522C002BB102229847EB68E360AB68A360204681
:10523C0038BD0000F0B589B004686846FFF74DFF33
:10524C0000238DF808304FF00202D4E84F3F002BBA
:10525C0003D1C4E8412F0029F7D102D08DF80830D2
:10526C0063E014F10C0503D069462846FFF735FFBF
:10527C00BFF35F8F01236370002004F10803BFF3B9
:10528C005F8F53E8006F43E80002002AF9D1BFF3A7
:10529C005F8F002E49D0FFF787FB20B1294630469F
:1052AC00FFF798FF3AE0314602A8FFF7B3FFE0683A
:1052BC00B4F9105008B101F0A5FA06901020ADF821
:1052CC001C50FEF7E2FE0546E8B100278760182067
:1052DC00FEF7DBFE044688B10146876002A8FFF7A3
:1052EC0047FE049BA268A360059B049206A9E26892
:1052FC00E36004F110000592FFF7EFFE0D4BEB603D
:10530C000D4B2C60AB6006A8FFF7F6FE02A8FFF76A
:10531C0020FE002229460948FFF74EFB3046FFF7D6
:10532C0018FE1021304601F0AFF86846FFF7E4FE96
:10533C0009B0F0BDF3510D0069540D0075590D0005
:10534C002DE9F04F8BB006460F46904699469DF8D6
:10535C0050A0FFF7A5FB07AD834630BB4FF62E736D
:10536C00059005A92846ADF81830FFF7B6FE1420B5
:10537C00FEF78BFE044658B10223037001234370E1
:10538C00C0F804B0C0F808B029460C30FFF7A5FEF1
:10539C003046214640F8044BFFF708FF2846FFF73C
:1053AC00ABFE05A8FFF7A8FE52E000240C23142046
:1053BC006C60AC600793FEF768FE014618B1047090
:1053CC0044704460846004A80391FFF7EFFE224B05
:1053DC0008930820FEF759FE044628B1039B40F8B9
:1053EC00043B04A9FFF715FD00955FFA8AF34A46C2
:1053FC00414638460994FFF75BFB20B9039B5B7869
:10540C0003F0FF0283B1039B059304A906A8FFF7E1
:10541C0000FD05A93046FFF799FE06A8FFF700FD31
:10542C0004A8FFF7FDFC13E04FF69C7305A903A835
:10543C000592ADF81830FFF7FDFE05A8FFF75CFEEE
:10544C0005A80999FFF793FE06A8FFF7E9FCDAE730
:10545C0030460BB0BDE8F08FD9550D00022AF8B5D7
:10546C00044606D0032A17D0012A22D10B68036008
:10547C001FE018200E68FEF708FE054650B13146B5
:10548C00FFF7C8FE3069B6F9147008B101F0BAF92B
:10549C002861AF8225600CE0046854B104F110005F
:1054AC00FFF72AFE2046FFF754FD1821204600F096
:1054BC00EBFF0020F8BD38B5002383608B680446F1
:1054CC000D462BB102229847EB68E360AB68A360F2
:1054DC00204638BD022A70B5044606D0032A11D0E6
:1054EC00012A18D10B68036015E014200E68FEF732
:1054FC00CCFD054620B13146FFF7DDFF337C2B7424
:10550C00256008E0046834B12046FFF722FD142121
:10551C00204600F0B9FF002070BD0000F0B500235C
:10552C0087B00C46BFF35F8F50E8006F40E8003245
:10553C00002AF9D1BFF35F8F002E3FD01846FFF73A
:10554C0033FA074620B121463046FFF753FE2EE0D2
:10555C00314601A8FFF7AFFF23788DF814301020E7
:10556C00FEF793FD0546D0B187601420FEF78DFD44
:10557C00044678B18760014601A8FFF7F9FC039B4C
:10558C00A268A360049B0392E268E3609DF8143068
:10559C00049223740A4BEB600A4B2C60AB6001A89D
:1055AC00FFF7D7FC002229460748FFF705FA3046DB
:1055BC00FFF7CFFC1021304600F066FF07B0F0BDBE
:1055CC0013520D00E1540D0075590D0030B585B026
:1055DC0004460D4668461146FFF7C9FD7CB124B25E
:1055EC0028460DB101F00EF9029002A96846ADF8FB
:1055FC000C40FFF71FFE02A8FFF77EFD1DE0009890
:10560C008DF808404FF00102D0E84F3FA34203D180
:10561C00C0E8412F0029F7D102D08DF808300CE0FA
:10562C0010F10C014FF0010318BF0373BFF35F8F30
:10563C00043000F8033CFFF771FF01A8FFF7F0FB03
:10564C0005B030BD704710B51821044600F01CFFA2
:10565C00204610BDF0B5037D062B8DB00E4600F133
:10566C0004074FF0000402D000F1080518E00CAD5F
:10567C00394605F8304D2F232A460A20FFF784F8C7
:10568C00284601F0DAF833680246DB6829463046D2
:10569C0098470FE024B12E213046FFF70BFC044451
:1056AC0015F8011D0A223046FFF71DFCBD420444CB
:1056BC00F0D120460DB0F0BD10B5054B04461122BB
:1056CC0040F8043B002101F05AF8204610BD00BF01
:1056DC00686C0D000346074A10B543F8042B01F122
:1056EC00100251F8044B43F8044B9142F9D10A785B
:1056FC001A7010BD686C0D00037D042B01D140683D
:10570C0008E0062B0AD1436853B9836843B9C368D0
:10571C0033B90069003018BF012070470020704772
:10572C000120704710B59DF8084044EA032343EA72
:10573C00024242EA016104234160037510BD37B592
:10574C000D788B784A78C97800912946FFF7EAFFE3
:10575C0003B030BD41747047704708B50021007C20
:10576C00FFF7F2F830EA200028BF4FF0FF3008BDF9
:10577C0008B50121007CFFF7E7F830EA200028BFCC
:10578C004FF0FF3008BD08B5007CFFF7D5F820EAD4
:10579C00E07008BD08B5007CFFF7C6F820EAE070A1
:1057AC0008BD007CFFF7E0B810B51421044600F0EA
:1057BC006BFE204610BD38B50446007C0D46FFF745
:1057CC00BBF8002801DC607C28B12946207CFFF75F
:1057DC00C3F820EAE07038BD10B5044600236360BE
:1057EC004FF47A73A360054B2360012308462174A0
:1057FC0063741146FFF788F8204610BD7C6C0D00D1
:10580C000022007CFFF788B810B514220446002152
:10581C0000F0B5FF204610BD30B50E4D87B001A885
:10582C00FFF7F2FF296811F0010410D12846FEF7AA
:10583C0032FC60B101AA21460748FFF7CDFF28468C
:10584C00FEF72EFC054A0649034800F00FFE0248FD
:10585C0007B030BD04E4032008E4032034DF032048
:10586C0065570D0070474174704708B5007CFEF712
:10587C00DBFF20EAE07008BD08B5007CFEF7ACFF4A
:10588C0020EAE07008BD08B5007CFEF7B5FF30EAF1
:10589C00200028BF4FF0FF3008BD08B5007CFEF794
:1058AC00A3FF30EA200028BF4FF0FF3008BD007C7A
:1058BC00FEF7AABF10B51421044600F0E5FD204602
:1058CC0010BD70B5457C04460E4625B9007CFEF72C
:1058DC00ABFF002805DD3146207CBDE87040FEF7AB
:1058EC0073BF284670BD000010B50446084611462B
:1058FC00002262604FF47A72A260054A2260012293
:10590C00207462741A46FEF757FF204610BD00BF84
:10591C00AC6C0D00007CFEF77FBF000038B50C4D61
:10592C00296811F0010411D12846FEF7B4FB68B1C7
:10593C00084A094B09482146FFF7D6FF2846FEF7CF
:10594C00AFFB074A0749054800F090FD034838BDF6
:10595C00B4E40320B8E4032030E403201CE4032067
:10596C0034DF032071580D0010B5836804460BB961
:10597C0000F09DFDC3689847A3681BB10322214624
:10598C002046984720461021BDE8104000F07CBD11
:10599C007047F8B5064615460C468F18BC4206D023
:1059AC00336814F8011B9B6830469847F6E7284685
:1059BC00F8BD0022007CFEF73FBF0021007CFEF703
:1059CC0043BF0021007CFEF747BF0021007CFEF79F
:1059DC004BBF0021007CFEF74FBF10B514210446CD
:1059EC0000F052FD204610BD10B504460023636044
:1059FC004FF47A73A360044B21740846236011465C
:105A0C00FEF74AFF204610BDDC6C0D000021007C27
:105A1C00FEF73ABF002211464068FFF721B800227A
:105A2C0011464068FFF72CB800224068FFF720B8F9
:105A3C00002281F001014068FFF70AB800231A46E2
:105A4C0001214068FEF7FCBF00231A461946406846
:105A5C00FEF7EEBF002211464068FEF7E1BF0022C0
:105A6C0011464068FEF7CCBF002202214068FEF7C9
:105A7C00CFBF00231A464068FEF7BABF38B50546BB
:105A8C0088B104684CB1A3681BB10322214620469F
:105A9C0098471021204600F0F7FC28461421BDE859
:105AAC00384000F0F1BC38BD10B103685B68184792
:105ABC00704710B503680446BBB15868FEF73CFE4E
:105ACC0078B923685A7C12B95868FEF73DFE2368F2
:105ADC005868FEF741FE20680023236028B1FFF7C9
:105AEC00CDFF206808B1FFF7C9FF204610BD38B5BF
:105AFC000446D0F8C40108B1FEF7CBFAD4F8C001C3
:105B0C0008B1FEF739FED4F8BC5135B12846FFF781
:105B1C00D0FF0421284600F0B7FC206808B1FFF73D
:105B2C00C3FF204638BD000010B5044B044640F8B6
:105B3C00083BFFF7DCFF204610BD00BF046D0D00D5
:105B4C0038B50E4C0E4B23600025022304F5E4708F
:105B5C006360A560C4F8C451C4F8C851FEF704FED4
:105B6C00084BC4F8CC5184F8D05123602046064A27
:105B7C000649BDE8384000F079BC00BF3CE5032085
:105B8C00EC6D0D00046D0D0034DF0320355B0D0052
:105B9C0037B502AC036804F8011DDD6B01224FF030
:105BAC00FF332146A84703B030BD10B40368DC6B4B
:105BBC004FF0FF33A4465DF8044B604737B502AC99
:105BCC00036804F8011DDD6B214613460122A8472A
:105BDC0003B030BD704738B543691A68002A0446D3
:105BEC0005DAB3F88620B3F884309A4201D0012547
:105BFC000BE003681B699847002814BF012500259A
:105C0C0003D123682046DB6A9847284638BD436990
:105C1C001868C043C00F704770470020704710B51C
:105C2C001421044600F030FC204610BDFEF72FBABC
:105C3C007FB5164600224260029203925A1C04461B
:105C4C000D4608D04FF47A72B3FBF2F1029102FBCD
:105C5C0011314A43039260690823009341F2050213
:105C6C006B4440F6FF710068FEF71EFE002808DB4F
:105C7C0060690023324629460068FEF735FE00288D
:105C8C0004DAFEF755FF03686360002004B070BDB2
:105C9C0010B5036804469B689847A368013BA36052
:105CAC002BB923682046DB68BDE81040184710BDAF
:105CBC0070B504464D69054B44F8043B8C350646DB
:105CCC000FCD0FC42B682370304670BD686C0D006F
:105CDC0010B54369B3F88620B3F884309A42044671
:105CEC0005D06269B2F884301344187910BD03688A
:105CFC001B6998470028F4D14FF0FF3010BD10B548
:105D0C004369B3F88620B3F884309A42044608D02D
:105D1C006269B2F88430591C1344A2F884101879C3
:105D2C0010BD03681B6998470028F1D14FF0FF3074
:105D3C0010BDF8B543691746B3F88620B3F8843024
:105D4C009A4205460E4606D103681B69984710B95E
:105D5C004FF0FF3414E06969B1F88430B1F8864033
:105D6C00E41ABC4228BF3C46194422460431304652
:105D7C0000F0FAFC6A69B2F884302344A2F884304B
:105D8C002046F8BD2DE9F0439846036893B0DB6AD2
:105D9C000D4606461746984712AB002443F8484D6B
:105DAC00224621462846FEF767FC814600283DD155
:105DBC00009B002B56D05B69002B53D006A8FFF735
:105DCC007BFC009B5C696378022B01D1211D13E0E5
:105DDC000A2B14D11122494601A800F0D0FCA3686B
:105DEC0033BBE36823BB4FF6FF702569FEF7D4FC89
:105DFC0085421DD104F1140106A8FFF7A0FC06A8EA
:105E0C00FFF77AFC00282DD0336807ADD3F820902B
:105E1C00184B0C930FCD0DAC0FC42B6823703A4666
:105E2C0043460CA93046C84781461BE0A14619E001
:105E3C0004F1080301AD1834186859682A4603C2E6
:105E4C000833A3421546F7D1062301A90CA80DADC2
:105E5C008DF81430FFF73EFC0FCD07AC0FC42B6848
:105E6C002370CCE70098FEF7FFFB484613B0BDE863
:105E7C00F08300BF686C0D0042690023A2F88430E7
:105E8C004269A2F8863070472DE9F0411E4603683E
:105E9C000C468AB0DB6A054617469847237DD5F831
:105EAC001480042B0CBF02200A2006220121FEF7CD
:105EBC0023FDC8F800006B691B68002B18DB284613
:105ECC00FFF7DAFFD6B1002303A9F0B20393ADF8C4
:105EDC001030FEF719FC58B968690623009341F29B
:105EEC000B0203AB40F6FF710068FEF7DDFC28B136
:105EFC002B682846DB6A002498473BE01C26324678
:105F0C00002103A800F03BFC237D8DF80C60042BD2
:105F1C000CD1022338468DF80D30FEF745FCADF858
:105F2C000E006068FEF738FC049013E00A23384634
:105F3C008DF80D30FEF738FC05AEADF80E00231DC4
:105F4C0004F1140718685968324603C20833BB427F
:105F5C001646F7D16B691C2203A91868FEF7B4FC2E
:105F6C000028C5D104340FCC6D698C350FC523685E
:105F7C002B70012420460AB0BDE8F08110B54369AE
:105F8C0004461868002801DBFEF796FC63694FF0A5
:105F9C00FF321A606069112200218C3000F0EFFB97
:105FAC002046BDE81040FFF767BF000030B54269DE
:105FBC00B2F886308BB004461BB1B2F884209A42FA
:105FCC0040D06369186800283FDBB3F886507F2DFA
:105FDC003BD8191DC5F1800208232944FEF77CFC2F
:105FEC0000280CDD6369B3F886200AB9A3F8842075
:105FFC006269B2F886301844A2F8860025E0FEF7F4
:10600C0097FD03680B2B20D0FEF792FD03680B2B3A
:10601C001BD02023002502930395FEF789FD03680E
:10602C0001930E4B009302AA2B460D493220FEF72A
:10603C00A3FC63691868FEF73FFC63694FF0FF32FD
:10604C001A6002E0FFF718FFBBE76269B2F886300E
:10605C00B2F88400181A0BB030BD00BF9F6D0D0054
:10606C00986D0D0010B5002304460160A0F8843033
:10607C00A0F886308830FFF71FFB204610BD0000CB
:10608C004FF47A7270B500238260144A4360026048
:10609C00436183610446A0200E46FDF7F6FF0546DA
:1060AC0010B13146FFF7DEFF1420FDF7EEFF03467B
:1060BC0028B1012242608260094A02600561A06930
:1060CC006561A36128B14368013B43600BB9FFF7DD
:1060DC00DFFD2046FFF7D0FE204670BD546D0D004D
:1060EC00386D0D0010B54FF0FF310446FFF7C8FFB7
:1060FC00204610BD10B504460068002801DBFEF7F1
:10610C00DBFB204610BD10B504692046FFF7F2FFFB
:10611C0024B12046BDE81040FDF7B9BF10BD0022E8
:10612C0011464068FEF77CBC002211464068FEF721
:10613C0097BC002211464068FEF7A2BC00224068C2
:10614C00FEF796BC002281F001014068FEF780BC8E
:10615C0000231A4619464068FEF772BC00231A4603
:10616C0019464068FEF764BC002211464068FEF7F1
:10617C0047BC002202214068FEF74ABC00231A46A5
:10618C004068FEF735BC0000024B04225A60024AFC
:10619C001A60704710E70320B86D0D0000231A46F3
:1061AC004068FEF725BC002202214068FEF730BC97
:1061BC00002211464068FEF723BC002211464068BD
:1061CC00FEF72EBC00231A4619464068FEF730BC79
:1061DC0000231A4619464068FEF732BC002281F0B3
:1061EC0001014068FEF734BC00224068FEF740BC59
:1061FC00002211464068FEF743BC0022114640685D
:10620C00FEF72EBC2DE9F043002495B016460D4642
:10621C000746FFF751FA214620220CA8009400F003
:10622C00AEFA40230C9321466B460CAA3046FEF77F
:10623C0023FA0446002844D1024601216868FEF77F
:10624C00EFFB0221804622466868FEF7E9FB009EC0
:10625C0081462146002E34D0002932D17368022B9E
:10626C0002D00A2B09D02AE0B8F1000F27D07169AF
:10627C0038460431FFF763FA20E0B9F1000F1ED065
:10628C007469112201A800F07AFA06238DF81430F3
:10629C0001AD04F108031834186859682A4603C282
:1062AC000833A3421546F7D101A906A807ADFFF79D
:1062BC0011FA0FCD3C1D0FC42B6823700121F66918
:1062CC00C8E70098FEF7D0F9384615B0BDE8F08362
:1062DC00024B034A1A6000225A60704718E70320E9
:1062EC00EC6D0D0010B5044600F060F8FEF77CFC78
:1062FC0028B1A4F10B03022B01D8002010BD00F033
:10630C008FF8FFF783FB08B1012CF6D9FFF706FBDA
:10631C00FFF700FB18B1A4F10903012BEDD9232CD5
:10632C008CBF0020012010BD232838B504460D4633
:10633C000AD8FF2908D0FFF7D5FF28B129462046F7
:10634C00BDE83840FEF7B0B938BD38B504460D4647
:10635C00FEF7B2F9FF2810D0062804D84D2323FAF3
:10636C0000F0C30709D42046FFF7BCFF28B129462B
:10637C002046BDE83840FEF7A7B938BD0D2810B54A
:10638C0004469CBF0E34A4B22046FFF7ABFF50B1BD
:10639C0003212046FEF780F9032804D12046BDE8EE
:1063AC001040FEF799B9002010BD000038B50B4D18
:1063BC00296811F001040FD12846FDF76CFE58B185
:1063CC0021460748FEF702FC2846FDF769FE054A00
:1063DC000549034800F04AF8014838BD2CE7032072
:1063EC0020E7032034DF0320C94B0D0070B50446B1
:1063FC0014252A46094E002100F0C1F925802025DC
:10640C003146A5602561284600F040F831466060B1
:10641C00284600F03BF8E060204670BD186E0D0079
:10642C0030B50E4D296811F0010487B013D1284600
:10643C00FDF731FE78B101A8FFF7D8FF01AA21467C
:10644C000748FFF7D1FA2846FDF72AFE054A064908
:10645C00034800F00BF8024807B030BD34E70320C6
:10646C0038E7032034DF03209D590D000B4601460D
:10647C00184600F06BB90000024B1868BFF35F8F31
:10648C00704700BF4CE70320FDF701BE00F000B8D9
:10649C0010B5002814BF044601242046FEF718FB53
:1064AC0020B9FFF7E9FF08B18047F6E710BD08B542
:1064BC00FEF72EFB184B1A68D1075CBF01221A603D
:1064CC00164B1A68D2075CBF01221A60144B1A686B
:1064DC00D0075CBF01221A60124B1A68D1075CBF4F
:1064EC0001221A60104B1A68D2075CBF01221A6095
:1064FC000E4B1A68D0075CBF01221A600C4B1A684D
:10650C00D1075CBF01221A600A4B1A68D2075CBF24
:10651C0001221A60704700BF6CE7032068E7032074
:10652C0064E7032060E703205CE7032058E70320BF
:10653C0054E7032050E70320244B1A68D0075CBFB4
:10654C0001221A60224B1A68D1075CBF01221A6023
:10655C00204B1A68D2075CBF01221A601E4B1A68C6
:10656C00D0075CBF01221A601C4B1A68D1075CBFB4
:10657C0001221A601A4B1A68D2075CBF01221A60FA
:10658C00184B1A68D0075CBF01221A60164B1A68A8
:10659C00D1075CBF01221A60144B1A68D2075CBF8A
:1065AC0001221A60124B1A68D0075CBF01221A60D4
:1065BC00104B1A68D1075CBF01221A600E4B1A6887
:1065CC00D2075CBF01221A60704700BF9CE7032012
:1065DC0098E7032094E7032090E703208CE703203F
:1065EC0088E7032084E7032080E703207CE703206F
:1065FC0078E7032074E7032070E70320244B1A6824
:10660C00D0075CBF01221A60224B1A68D1075CBF0D
:10661C0001221A60204B1A68D2075CBF01221A6053
:10662C001E4B1A68D0075CBF01221A601C4B1A68FB
:10663C00D1075CBF01221A601A4B1A68D2075CBFE3
:10664C0001221A60184B1A68D0075CBF01221A602D
:10665C00164B1A68D1075CBF01221A60144B1A68DA
:10666C00D2075CBF01221A60124B1A68D0075CBFBC
:10667C0001221A60104B1A68D1075CBF01221A6004
:10668C000E4B1A68D2075CBF01221A60704700BF1C
:10669C00CCE70320C8E70320C4E70320C0E70320AE
:1066AC00BCE70320B8E70320B4E70320B0E70320DE
:1066BC00ACE70320A8E70320A4E70320A0E703200E
:1066CC00184B1A68D1075CBF01221A60164B1A6866
:1066DC00D2075CBF01221A60144B1A68D0075CBF4A
:1066EC0001221A60124B1A68D1075CBF01221A6092
:1066FC00104B1A68D2075CBF01221A600E4B1A6845
:10670C00D0075CBF01221A600C4B1A68D1075CBF22
:10671C0001221A600A4B1A68D2075CBF01221A6068
:10672C00704700BFECE70320E8E70320E4E7032011
:10673C00E0E70320DCE70320D8E70320D4E70320BD
:10674C00D0E703200A22002100F020B910B5054C37
:10675C0013462CB10A4601460220AFF3008010BD4F
:10676C00204610BD0000000010B5431E0A449142A3
:10677C0004D011F8014B03F8014FF8E710BD0244A7
:10678C000346934202D003F8011BFAE7704700005E
:10679C0038B5124B1C68A36B0546D3B91820FEF70D
:1067AC0097F943F20E33A06303804AF6CD3343804E
:1067BC0041F2342383804EF26D63C3804DF6EC635B
:1067CC000381052343810B23838101220023C0E92C
:1067DC000423A36B00221D615A6138BD30DF0320F6
:1067EC0010F8012B11F8013B012A28BF9A42F7D06F
:1067FC00D01A7047034611F8012B03F8012B002A1D
:10680C00F9D17047024B0146186800F003B800BF7D
:10681C0030DF032070B5064608460C4600F00DF834
:10682C00451C29463046FEF77BF9064618B12A4628
:10683C002146FFF799FF304670BD034613F8012B34
:10684C00002AFBD1181A01387047F0B5037863B9E8
:10685C000B78002B18BF0020F0BD15F8012F62B18A
:10686C0014F8017F97423046F7D00346461C007857
:10687C0010B14D1E5C1EF0E7F0BD1846F0BD0000D7
:10688C002DE9F04780464048D0F800900F463D4631
:10689C0015F8014B09EB0400407800F0080000F0FB
:1068AC00FF0608B12F46F2E72D2C03D1BD1C7C78D6
:1068BC00012603E02B2C04BF7C78BD1C13B1102BDC
:1068CC000AD15BE0302C57D1287800F0DF00582833
:1068DC004DD16C7810230235002E14BF4FF0004CB4
:1068EC006FF0004C0027BCFBF3FA384603FB1ACCC4
:1068FC0009EB040E9EF801E01EF0040F01D0303CB1
:10690C000BE01EF0030E1BD0BEF1010F0CBF4FF0BD
:10691C00370E4FF0570ECEEB0404A34210DDB7F147
:10692C00FF3F0AD0504506D801D1644503DC03FB78
:10693C000040012701E04FF0FF3715F8014BD7E776
:10694C007B1C0CD1002E4FF0220314BF4FF00040E3
:10695C006FF00040C8F800302AB9BDE8F08706B1E6
:10696C00404272B107B1691E1160BDE8F087302456
:10697C00002BB1D10823AFE70A23ADE7302CA3D00D
:10698C00AAE7BDE8F08700BFCCDE032013460A4619
:10699C00014602480068FFF773BF00BF30DF0320D9
:1069AC001D400D0059400D0085400D0089400D0023
:1069BC0000000000415F726561640053657475707E
:1069CC002066696E697368656400696E20646F2D5A
:1069DC006C696768740038426C625A355456446965
:1069EC0033477362634D4A65413734426349556C92
:1069FC00784E416C46357832446D6B48764F002F9B
:106A0C006170692F25732F6C69676874732F256407
:106A1C002F7374617465007B226F6E223A66616C11
:106A2C0073657D007B226F6E223A747275657D00F2
:106A3C003139322E3136382E37372E323000505510
:106A4C00540061667465722068747470207075747B
:106A5C00006265666F726520646F2D6C696768747F
:106A6C0000416674657220646F2D6C6967687400F0
:106A7C006F6E20006F666600436F6E74656E742DCA
:106A8C0054797065006170706C69636174696F6EC4
:106A9C002F782D7777772D666F726D2D75726C65EB
:106AAC006E636F64656400416363657074002A2FC4
:106ABC002A0020485454502F312E300D0A00636C9C
:106ACC006F736500436F6E6E656374696F6E00481B
:106ADC004F535400436F6E74656E742D4C656E6726
:106AEC00746800504F5354000D0A0D0A000000004A
:106AFC000000000000000000AB4B0D00A14B0D008E
:106B0C00974B0D008D4B0D00814B0D00754B0D00FF
:106B1C00694B0D00614B0D00574B0D004D4B0D009B
:106B2C0011620D000000000000000000C94B0D00B8
:106B3C00CB4B0D00626175640053657269616C002A
:106B4C0053657269616C31007479706500706172A3
:106B5C00616D00636D6400696400686E6400737439
:106B6C00726D0066696C74006C766C0061646448CC
:106B7C00616E646C65720072656D6F766548616EEE
:106B8C00646C657200656E756D48616E646C6572DF
:106B9C0073004A534F4E53747265616D4C6F674866
:106BAC00616E646C657200617070002530313075F7
:106BBC0020005D20002C200028293A2000205B00BA
:106BCC00636F6465203D200025690064657461690C
:106BDC006C73203D20006C6E00666E00636F646504
:106BEC000064657461696C006E6F6E65007472612F
:106BFC00636500696E666F007761726E0065727214
:106C0C006F720070616E696300616C6C005A0025D4
:106C1C002B3033643A253032750025592D256D2DD6
:106C2C0025645425483A254D3A2553257A0061733D
:106C3C006374696D65000000000000000000000036
:106C4C00C9500D00CF500D0013510D00DD500D003B
:106C5C00CB500D00000000000000000061560D003C
:106C6C0051560D0053560D000000000000000000AE
:106C7C0065570D00B5570D00C3570D006D4E0D0037
:106C8C00A1570D0067570D007D570D00AF570D0034
:106C9C0093570D0061570D0000000000000000002C
:106CAC0071580D00C1580D00CF580D006D4E0D00E0
:106CBC0085580D00A7580D0093580D00BB580D00BA
:106CCC0073580D0077580D00000000000000000004
:106CDC009D590D00E7590D00BF590D009F590D002E
:106CEC00C7590D00CF590D00D7590D00DF590D00B4
:106CFC0000000000000000007F5A0D00755A0D00C6
:106D0C006B5A0D00615A0D00555A0D00495A0D0071
:106D1C003D5A0D00355A0D002B5A0D00215A0D000D
:106D2C0011620D000000000000000000255C0D0049
:106D3C002B5C0D0013610D00395C0D00275C0D0000
:106D4C00000000000000000001410D002D410D006D
:106D5C009D5B0D00B75B0D00B95F0D000B5D0D0069
:106D6C00DD5C0D00E15B0D00955E0D00915D0D008D
:106D7C003F5D0D00895F0D00E35B0D001B5C0D009A
:106D8C00C95B0D003D5C0D00BD5C0D00776972693F
:106D9C006E670072656376206572726F72203D209B
:106DAC0025640000000000000000000089610D0057
:106DBC007F610D0075610D002B610D0069610D0087
:106DCC005D610D0051610D0049610D003F610D00C9
:106DDC0035610D0011620D00000000000000000084
:106DEC00A9610D00B3610D00BD610D00C7610D00FF
:106DFC00D1610D00DD610D00E9610D00F5610D0043
:106E0C00FD610D0007620D0011620D0000002020D5
:106E1C00202020202020202828282828202020203E
:106E2C0020202020202020202020202020208810FE
:106E3C00101010101010101010101010101004045E
:106E4C000404040404040404101010101010104165
:106E5C0041414141410101010101010101010101D6
:106E6C00010101010101010101101010101010426B
:106E7C0042424242420202020202020202020202A6
:106E8C000202020202020202021010101020000084
:106E9C0000000000000000000000000000000000E6
:106EAC0000000000000000000000000000000000D6
:106EBC0000000000000000000000000000000000C6
:106ECC0000000000000000000000000000000000B6
:106EDC0000000000000000000000000000000000A6
:106EEC000000000000000000000000000000000096
:106EFC000000000000000000000000000000000086
:106F0C000000000000000000000000000000000075
:106F1C000000000000000000000000000000000065
:106F2C000000000000000000000000000000000055
:106F3C000000000000000000000000000000000045
:106F4C000000000000000000000000000000000035
:106F5C000000000000000000000000000000000025
:106F6C000000000000000000000000000000000015
:106F7C00430000001D430D0039440D00B54B0D00BE
:106F8C00194C0D00454E0D00354F0D00454F0D00B1
:106F9C009D4F0D004D5B0D0095610D00DD620D00E8
:106FAC00C1640D0045650D0009660D00CD660D0030
:046FBC0000000000D1
:046FC00000000000CD
:106FC40005000000846A0D00916A0D00B36A0D008B
:106FD400BA6A0D0000000000000000000700000075
:106FE4003A6C0D00196E0D00000000001C6F0D00BE
:106FF4003C6F0D005C6F0D000000000000000000FD
:1070040000000000000000007C6F0D000000000084
:10701400000000000000000000000000000000006C
:10702400000000000000000000000000000000005C
:10703400000000000000000000000000000000004C
:0C7044000000000000000000D0DE03206F
:10705000FFFFFFFF00000102030405060708090AFD
:107060000B0C0D0E0F101112131415161718191AF8
:087070001B1C1D1E1F2028003F
:047078007856341200
:04000003D000401CCD
:00000001FF
