:02000004080AE8
:1000000000000A08782D0A08000006000600050115
:080010000402DE0500000000FF
:0400180018270A0893
:10001C0009480A4908B5884205D0094A824202D0EB
:10002C00121A02F057FA0748074A0021121A02F076
:10003C005CFA064808BD00BF00000020C42C0A086A
:10004C008C0000208C000020A80A0020A80A0020A8
:10005C0070B501F01BFA074B074C1E46E41AA408B6
:10006C000025A54204D056F8253098470135F8E70D
:10007C0070BD00BF8C2C0A08C02C0A0800F05AB8BE
:10008C0008B500F0FDF8BDE8084001F0C1B900F07A
:10009C00F9BC00F0FFBC0078B0FA80F04009704762
:1000AC000123037070471068704710B50446043084
:1000BC0000F0E2FF204610BD10B504463C3000F0C5
:1000CC00DBFF04F1280000F0D7FF204600F0D4FF3E
:1000DC00204610BD10B5044603689B689847A3687A
:1000EC00013BA3602BB923682046BDE81040DB68B8
:1000FC00184710BD10B5064B04460360806928B143
:10010C004368013B43600BB9FFF7E4FF204610BD89
:10011C009C280A0810B50446FFF7ECFF204610BDDA
:10012C0010B50446FFF7E6FF20461C2102F062F8EA
:10013C00204610BD10B5204B86B01888012101F067
:10014C0091FF0121002001F08DFF00210A2001F018
:10015C0089FF00240C230394ADF80C30174B0422B8
:10016C000493174903AB1748059400F06BFC234626
:10017C0002221549154800F065FC154B03A81B78A5
:10018C0022468DF8003013493C2301F0EDFA049817
:10019C0028B14368013B43600BB9FFF79BFF01217A
:1001AC00002001F070FF01F035FD4FF4165101F005
:1001BC0017FD06B010BD00BF1C000020B3000A08DC
:1001CC0014050020D3270A08900000202C270A08C9
:1001DC00E000002033270A0830B50D460446B3B0C2
:1001EC0001F018FD1A4901F053F81A492B461A4A26
:1001FC0012A800F05FFC194902A802F0B1F91CB179
:10020C00174902A802F0ACF9164C1749204600F029
:10021C008DFF502312A904F12800A36300F086FF80
:10022C0002A904F13C0000F081FF104B104A21465A
:10023C0000931048104B00F0FBF801F0EBFC0F4959
:10024C0001F026F84FF47A7001F080F833B030BD2D
:10025C0042270A0877270A084E270A088F270A0818
:10026C009C270A0894000020A8270A08B6270A0829
:10027C0000050020E400002004000020BA270A0832
:10028C0010B50A2001F018FF184C50282378D4BF61
:10029C000020012083421FD0207001F0BBFC1449C8
:1002AC0000F0F6FF134B20781968FFF795FF01F06B
:1002BC00B1FC114900F0ECFF2178104B29B1012160
:1002CC00188801F0E0FE0E4903E0188801F0DBFE0F
:1002DC000C490D4800F02AFF0A2001F0EDFE0B4BF3
:1002EC001860BDE81040C82001F030B8E1000020D3
:1002FC00C9270A0800000020D9270A081C00002082
:10030C00E8270A08EC270A081405002090000020B2
:10031C0070B51F4B1F4C00221A701F4D00F0A4F932
:10032C001E49204600F0EFFE20461D4C2A461D4972
:10033C0001F052FF204600F043F81B4E20461B4CA8
:10034C002A461B4901F048FF3146204600F0DBFEEF
:10035C0004F1100001F0ACFB314604F1280000F070
:10036C00D2FE314604F13C0000F0CDFE2046114C8B
:10037C002A46114901F030FF3146201D00F0C3FE22
:10038C002A462046BDE870400C4901F025BF00BF4D
:10039C00E0000020140500208C000020EC270A0847
:1003AC00E400002085100A0864280A089400002044
:1003BC0021010A0800050020C5000A08B7000A0838
:1003CC0010B5044600F000FE204610BD38B50446BA
:1003DC00154600F04AFF0549204600F046FF294625
:1003EC002046BDE8384000F053BF00BF87290A08FB
:1003FC0038B50546144600F038FF0B49284600F086
:10040C0034FF002C05DA2D21284600F032FF614222
:10041C0000E0214628460A2200F044FF2846BDE8A9
:10042C00384000F029BF00BF87290A0800F01CB92A
:10043C002DE9F04F0D461E464FF0FF338FB00446AA
:10044C00136000212846174600F09CFED5F8388032
:10045C0060B92968B8F1000F02D01FFA88F200E0E9
:10046C0050220023204600F0D1FD14E0744B0DF116
:10047C00240E05F1140C0893BCE80F00AEE80F0035
:10048C00DCF800301FFA88F28EF8003008A900233F
:10049C00204600F083FC003018BF012018B920461C
:1004AC0000F062FCC8E01899204600F0DEFE6549B9
:1004BC00204600F0DAFEA96A204600F0D6FE62491A
:1004CC00204600F0D2FE61492046614AFFF77EFFCC
:1004DC000021284600F056FE20B92A685D492046C6
:1004EC00FFF774FF05F13C080021404600F04AFE7E
:1004FC0008B96A6C05E05849189802F027F80246CA
:10050C0018B956492046FFF773FF5EB1316849B1FF
:10051C007268204612B1FFF759FF01E000F0B8FEF7
:10052C000836F3E7204600F0A7FE204600F051FB0A
:10053C000021404600F026FE18B9E96B204600F079
:10054C00A7FE04F11C084FF480620021404601F024
:10055C00CCFF00F0D1F800268146354600F0CCF8EF
:10056C0041F2883A204600F0C3FBD8B1204600F097
:10057C0074FB834600F0C0F840F2FE339D42814686
:10058C0003D8631983F81CB00AE040F2FF339D4294
:10059C0006D1002384F81B34204600F0E5FB01262D
:1005AC000135DFE76319187700F0A6F8C9EB000BEB
:1005BC0026B9D34502D8C82000F0C8FE204600F06A
:1005CC0094FC18B1D34501D8002ECBD0204600F0B6
:1005DC00CBFB4146684600F096FD0C230922694688
:1005EC0004A800F0F3FD1E4908A800F08CFD08A932
:1005FC00684600F0E8FD044608A800F03DFD631CC9
:10060C0014D03D1D1749284600F090FD221D694667
:10061C0008A800F0FDFD08A9284600F0AFFD08A8C9
:10062C0000F02AFD049801F043FF386004A800F0A4
:10063C0023FD684600F020FD0FB0BDE8F08F00BF31
:10064C00282A0A0883290A082A280A083C280A08A2
:10065C0036280A0847280A085B280A084C280A0882
:10066C0060280A0864280A0808B5024B1B681B6836
:10067C00019308BDB001060808B5024B1B685B6806
:10068C00019308BDB001060808B5024B1B689B68B6
:10069C00019308BDB001060808B5024B1B68DB6866
:1006AC00019308BDB001060808B5024B1B681B6915
:1006BC00019308BDB001060808B5024B1B681B6B03
:1006CC00019308BDB001060808B5024B1B68DB6935
:1006DC00019308BDB401060808B5024B1B681B6AE0
:1006EC00019308BDB401060808B5024B1B685B6892
:1006FC00019308BD9C01060808B5024B1B685B6999
:10070C00019308BD9C01060808B5024B1B685B6C85
:10071C00019308BDD001060808B5024B1B689B6C01
:10072C00019308BDD001060808B5024B1B689B69F4
:10073C00019308BDC401060808B5024B1B685B6A2F
:10074C00019308BDC401060808B5024B1B689B6ADF
:10075C00019308BDC401060808B5024B1B68DB6A8F
:10076C00019308BDC401060808B5024B1B681B6B3E
:10077C00019308BDC401060808B5024B1B685B6BEE
:10078C00019308BDC401060808B5024B1B689B6B9E
:10079C00019308BDC401060808B5024B1B681B6C0D
:1007AC00019308BDC401060808B5024B1B681B6EFB
:1007BC00019308BDAC01060808B5024B1B685B6EC3
:1007CC00019308BDAC01060808B5024B1B689B6E73
:1007DC00019308BDAC01060808B5024B1B68DB6E23
:1007EC00019308BDAC01060808B5024B1B681B6FD2
:1007FC00019308BDAC01060808B5024B1B685B6F82
:10080C00019308BDAC01060808B5034B1B68D3F86F
:10081C008030019308BD0000AC01060808B5024BFE
:10082C001B681B68019308BDBC01060808B5024B88
:10083C001B685B68019308BDBC01060808B5024B38
:10084C001B689B68019308BDBC01060808B5024BE8
:10085C001B68DB68019308BDBC01060808B5024B98
:10086C001B681B69019308BDBC01060808B5024B47
:10087C001B681B6A019308BDBC01060808B5024B36
:10088C001B681B6B019308BDBC01060808B5024B25
:10089C001B685B6C019308BDBC01060808B5024BD4
:1008AC001B681B68019308BDD801060808B5024BEC
:1008BC001B685B68019308BDD801060808B5024B9C
:1008CC001B681B69019308BDD801060808B5024BCB
:1008DC001B685B69019308BDD801060808B5024B7B
:1008EC001B689B69019308BDD801060808B5024B2B
:1008FC001B68DB69019308BDD801060808B5024BDB
:10090C001B681B6A019308BDD801060808B5024B89
:10091C001B685B6C019308BDC001060808B5024B4F
:10092C001B689B6C019308BDC001060808B5024BFF
:10093C001B681B6D019308BDA801020808B5024B8A
:10094C001B685B68019308BDA401060808B5024B3F
:10095C001B685B69019308BDA401060808B5024B2E
:10096C001B68DB6C019308BDA401060808B5024B9B
:10097C001B685B6D019308BDA401060808B5034B09
:10098C001B68D3F89030019308BD0000A401060841
:10099C0008B5034B1B68D3F89C30019308BD0000CD
:1009AC00A401060808B5024B1B685B68019308BDDF
:1009BC00C801060808B5024B1B689B68019308BD6B
:1009CC00C801060808B5024B1B68DB68019308BD1B
:1009DC00C801060808B5024B1B681B69019308BDCA
:1009EC00C801060808B5024B1B685B69019308BD7A
:1009FC00C801060808B5024B1B689B69019308BD2A
:100A0C00C801060808B5024B1B68DB69019308BDD9
:100A1C00C801060808B5024B1B681B6A019308BD88
:100A2C00C801060808B5024B1B681B6B019308BD77
:100A3C00C801060808B5024B1B685B6B019308BD27
:100A4C00C801060808B5024B1B681B68019308BD5A
:100A5C00CC01060808B5024B1B685B69019308BD05
:100A6C00CC01060808B5024B1B681B6A019308BD34
:100A7C00CC01060808B5024B1B68DB6B019308BD63
:100A8C00CC01060808B5024B1B681B68019308BD16
:100A9C00A001060808B5024B1B685B68019308BDF2
:100AAC00A001060808B5024B1B689B68019308BDA2
:100ABC00A001060808B5024B1B68DB68019308BD52
:100ACC00A001060808B5024B1B68DB6A019308BD40
:100ADC00A001060808B5024B1B681B6B019308BDEF
:100AEC00A001060810B5044B04460360C06808B1A9
:100AFC00FFF712FE204610BD70280A0810B50446F8
:100B0C00FFF7F0FF2046102101F074FB204610BDCA
:100B1C0070B504460E46074B0025036040F80C5F89
:100B2C00FFF7F2FD30462671FFF7CEFDA56020469B
:100B3C0070BD00BF70280A080079FFF7CDBD10B555
:100B4C000446006818B1FFF7A5FF0023236010BD11
:100B5C0010B50446FFF7F3FF204610BD4FF6FF73A8
:100B6C0010B5084C00202060A080A071208163810A
:100B7C00FFF7E4FE2046BDE81040034A034901F0AC
:100B8C002BBB00BF240500208C0000205D0B0A0845
:100B9C0037B502AC036804F8011DDD6B012247F286
:100BAC0030532146A84703B030BD10B40368DC6B4A
:100BBC0047F23053A44610BC604737B502AC03680B
:100BCC0004F8011DDD6B214613460122A84703B032
:100BDC0030BD704770470020704710B50446142193
:100BEC0001F008FB204610BDFFF753BA10B50446C0
:100BFC0003689B689847A368013BA3602BB92368E3
:100C0C002046BDE81040DB68184710BD70B504469F
:100C1C0006464D69044B8C3544F8043B0FCD0FC48C
:100C2C002B683046237070BD282A0A0810B543691A
:100C3C000446B3F88620B3F884309A4205D0626932
:100C4C00B2F884301344187910BD03681B699847B7
:100C5C000028F4D14FF0FF3010BD10B543690446A5
:100C6C00B3F88620B3F884309A4208D06269B2F89F
:100C7C008430591CA2F884101344187910BD0368F1
:100C8C001B6998470028F1D14FF0FF3010BDF8B523
:100C9C0043691746B3F88620B3F8843005469A4268
:100CAC000E4606D103681B69984710B94FF0FF3404
:100CBC0014E069693046B1F88430B1F886401944C3
:100CCC00E41ABC4228BF3C460431224601F002FC27
:100CDC006A69B2F884302344A2F884302046F8BD07
:100CEC0042690023A2F884304269A2F8863070472A
:100CFC0038B542690446B2F886301BB1B2F884208C
:100D0C009A420CD0206901F075F90368DB689847AA
:100D1C0018B363691868FFF789FD18B91DE0FFF770
:100D2C00DFFFEFE76069B0F886107F2915D8051D45
:100D3C00C1F18002002329440068FFF78FFD0028D1
:100D4C000BDD6369B3F886200AB9A3F884206269C5
:100D5C00B2F886301844A2F886006269B2F8863080
:100D6C00B2F88400181A38BD38B5436904461868BF
:100D7C00FFF75CFD18B163691868FFF777FD6569CB
:100D8C00FFF77CFD28606069112200218C3001F096
:100D9C00ACFB2046BDE83840FFF7A2BF2DE9F0417F
:100DAC001F4603688AB0DB6A06460C461546984710
:100DBC00384601F01FF90368DB689847002856D0C5
:100DCC0000972B46062201210220D6F81480FFF74B
:100DDC0035FD2023C8F800000027029373690397A0
:100DEC001B6801200193234B02AA009322493B4626
:100DFC00FFF79CFD73691868FFF718FD002836D0C3
:100E0C003046FFF76DFF0223ADF808302B0A8DF842
:100E1C000A30E3794FF4FA508DF80C30A3798DF841
:100E2C000B508DF80D3063798DF80E3014F8043FAB
:100E3C008DF80F30FFF76AFD73690546102202A981
:100E4C001868FFF703FD80462846FFF75FFD0FCCBF
:100E5C0075698C350FC523682B70B8F1000F05D060
:100E6C0033683046DB6A9847384600E001200AB008
:100E7C00BDE8F081E7280A08E0280A0810B54369A4
:100E8C0004461868FFF7D2FC08B9002010BD206991
:100E9C0001F0B0F80368DB6898470028F5D0636967
:100EAC001868FFF7BBFCB0FA80F0400910BD2DE9C3
:100EBC00F3410025456004460E4617469846FFF759
:100ECC00DDFF60B160690195CDF800802B463A4694
:100EDC0031460068FFF7DAFC002803DA01E04FF036
:100EEC00FF30606002B0BDE8F08138B50446FFF712
:100EFC00C5FF00BB6369B3F88610B3F88420914238
:100F0C0019D11868FFF792FC28B163691868FFF7CC
:100F1C0085FC012801D000250EE0236820461B69C2
:100F2C009847002814BF0125002505D123682046C9
:100F3C00DB6A984700E00125284638BD08B5FFF765
:100F4C009DFF003018BF012008BD10B504460023DA
:100F5C000160A0F88430A0F88630883000F0A8FD3D
:100F6C00204610BD4FF47A7270B58260144A00238B
:100F7C0043600260436183610446A0200E46FFF784
:100F8C0086F8054610B13146FFF7DFFF1420FFF756
:100F9C007EF8034628B1012242608260094A05614D
:100FAC000260A0696561A36128B14368013B43609D
:100FBC000BB9FFF71BFE2046FFF792FE204670BDD3
:100FCC009C280A0880280A0810B50446FFF756FC2E
:100FDC0001462046FFF7C6FF204610BD10B504465B
:100FEC000068FFF723FC10B12068FFF73FFC204698
:100FFC0010BD10B504692046FFF7F0FF24B1204660
:10100C00BDE81040FFF745B810BD00002DE9F043D6
:10101C001F4603688FB0DB6A06460D46904698471C
:10102C00134800F09AFF00B302A800F041FD2846D7
:10103C0001F0B9FA002481B200943B4603AA284679
:10104C00FFF76CFC80B9336809ADD3F82090094BDD
:10105C0003AC08930FCC0FC5236842462B7008A92C
:10106C003B463046C84700E020460FB0BDE8F08351
:10107C00B4090020282A0A0810B504460068FFF7B6
:10108C0009FD204610BD10B50446006808B1FFF7F5
:10109C0001FD00232360A360636010BD38B50446D6
:1010AC000D4600680131FFF7FDFC10B184E821000A
:1010BC00012038BD10B50368044613B143688B4258
:1010CC0007D22046FFF7EAFF20B1A3680BB92268CC
:1010DC001370012010BD70B50E461146044615461E
:1010EC00FFF7E8FF18B92046FFF7CDFF09E02A46C5
:1010FC003146A560206801F0EDF92268A368002153
:10110C00D154204670BD38B50023044603604360BB
:10111C00836003730D4639B1084601F044FA294641
:10112C0002462046FFF7D7FF204638BD38B50546A6
:10113C000C4641B1084601F036FA214602462846D3
:10114C00FFF7C9FF01E0FFF79EFF284638BD70B5D9
:10115C0004460E4609B9002070BD6AB18368D518E3
:10116C002946FFF7A7FF0028F5D02068A368314671
:10117C00184401F0F5F9A560012070BD8A68096872
:10118C00FFF7E5BF08B582680B4612B919B9012003
:10119C0008BD11B90368187802E0006801F0D6F9AF
:1011AC00B0FA80F0400908BD10B58368934207D9A6
:1011BC0004680968A01801F0FEF908B1001B10BD05
:1011CC004FF0FF3010BD0022FFF7EEBFF8B51D4603
:1011DC009A4288BF13460F46144688BF2C460B49CB
:1011EC0088BF1D460646FFF78EFFBA6894420AD8A0
:1011FC003968954294BFC4EB0502C4EB020221444A
:10120C003046FFF768FF3046F8BD00BF64280A0877
:10121C0010B504468B68FFF7D9FF204610BDF8B512
:10122C0006460D468F180024BD420CD0336815F8C5
:10123C00011B9B6830469847002801DB0444F3E708
:10124C00002C08BF04462046F8BD70B505460C4678
:10125C00084649B101F0A7F92B68024621462846F9
:10126C00BDE87040DB68184770BD08B5FFF7EDFFAF
:10127C0008BD03689B68184738B50D210546FFF774
:10128C00F8FF0A2104462846FFF7F3FF204438BD37
:10129C0038B50546FFF7D9FF04462846FFF7ECFFA3
:1012AC00204438BD012A98BF0A2230B50B468BB0BA
:1012BC0000218DF824100DF12304B3FBF2F505FB8E
:1012CC001233DBB2092B94BF30333733DBB22146F8
:1012DC0004F801392B46002DEFD1FFF7B6FF0BB008
:1012EC0030BD00231A4619464068FFF77BBB38B562
:1012FC00046805467CB16368013B63605BB9236895
:10130C0020469B689847A368013BA3601BB92368E0
:10131C002046DB689847284638BD0B68036013B13C
:10132C005A6801325A607047014A024B1A60704782
:10133C0071290A0830050020024B1A68024B1A600A
:10134C00704700BF20000020340500200021FFF76B
:10135C00FDBA10B58368044613B1032201469847C1
:10136C00204610BD10B50446FFF7F3FF204610BD14
:10137C0013B50B46044603C88DE8030093E803003D
:10138C0084E803009DE8030083E8030002B010BD6D
:10139C00034800238360034A034900F01DBF00BFCC
:1013AC00380500208C00002071130A0808B5144B76
:1013BC0033B100F02FFC03681B699847002816DC3A
:1013CC00104B33B100F0E4FC03681B69984700280C
:1013DC0010DC0D4B0BB1AFF300800C4B7BB100F06C
:1013EC0055FC03681B699847002806DC08BDAFF361
:1013FC000080E5E7AFF30080EBE7AFF3008008BDBA
:10140C0000000000000000000000000000000000D0
:10141C0008B5FFF7CBFFFFF76FF9014B186008BD5C
:10142C00D00900200248034A0349121A01F052B8AD
:10143C000040024004400240C02C0A0807B50023BB
:10144C0000931A466FF07701FFF7A2FA03B05DF82C
:10145C0004FB000007B543880A2B08D0502B09D198
:10146C00094B1B683BB103B05DF804EB1847FFF761
:10147C00E5FF06E0002300931A466FF07701FFF7B3
:10148C0087FA03B05DF804FB4805002038B5104C12
:10149C00104D2368AB42104B0CBF012200221A7076
:1014AC0002D0FFF7BFFF2560FFF71EF9044601F0DD
:1014BC0025F80A4B13B12046AFF3008000210748F2
:1014CC00FFF7D8FABDE8384000210548FFF756BAB7
:1014DC00004002401E1C279A4C0500200000000012
:1014EC0061140A0870470020704710B5044610219B
:1014FC0000F080FE204610BD08B508B1FFF7F5FFDF
:10150C0008BD002202604FF69C72828010B5B1F9C2
:10151C00044084808A8002680C6804600A6010BDF4
:10152C0010B504460068FFF7B5FA204610BD38B573
:10153C00C468F4B12378022B03D104F10C00FFF73B
:10154C00EFFF656835B12846FFF703FF10212846E9
:10155C0000F050FEA56835B12846FFF7FAFE1021C1
:10156C00284600F047FE2046BDE83840142100F024
:10157C0041BE38BD13B5044691E8050000234B600D
:10158C000B602060626001A801930093FFF7AFFE2F
:10159C00204602B010BDF7B50C4606460F4654F86F
:1015AC00043B02AD45F8083D214601A8FFF7B5FE06
:1015BC0029463046FFF7DEFF01A8FFF798FE2046CC
:1015CC00FFF795FE3846082100F014FE304603B0B4
:1015DC00F0BD000038B500230446036010200D4612
:1015EC00FEF755FD28B1012343608360024BC560B3
:1015FC0003602060204638BD0C2A0A08826810B5AA
:10160C000AB900F00AFEC368BDE81040184708B5D7
:10161C00006800F11001FFF7F1FF08BD826810B5FA
:10162C000AB900F0FAFDC368BDE81040184708B5C8
:10163C00006800F11001FFF7F1FF08BD38B5002379
:10164C0083608B6804460D462BB102229847EB68E9
:10165C00E360AB68A360204638BD0000F0B589B0EC
:10166C0004686846FFF74DFF4FF0020200238DF827
:10167C000830D4E84F3F002B03D1C4E8412F002998
:10168C00F7D102D08DF8083063E014F10C0503D0CB
:10169C0069462846FFF735FFBFF35F8F0123637060
:1016AC00BFF35F8F04F10803002053E8006F43E899
:1016BC000002002AF9D1BFF35F8F002E49D0FFF74B
:1016CC004DF920B129463046FFF798FF3AE03146F4
:1016DC0002A8FFF7B3FFE068B4F9105008B100F0AE
:1016EC0047FF06901020ADF81C50FEF7D0FC0546C5
:1016FC00E8B1002787601820FEF7C9FC044688B1C2
:10170C000146876002A8FFF733FE049BA268A36022
:10171C00059B0492E26806A9E36004F110000592AF
:10172C00FFF7EFFE0D4B2C60EB600D4BAB6006A88A
:10173C00FFF7F6FE02A8FFF70CFE00222946094827
:10174C00FFF714F93046FFF704FE1021304600F085
:10175C0051FD6846FFF7E4FE09B0F0BD1B160A0800
:10176C0091180A08E91D0A082DE9F04F8BB00646BE
:10177C000F46904699469DF850A0FFF76BF907ADC0
:10178C00834630BB4FF62E73059005A92846ADF85D
:10179C001830FFF7B6FE1420FEF779FC044658B15A
:1017AC000223037001234370C0F804B0C0F808B0E2
:1017BC0029460C30FFF7A5FE3046214640F8044B75
:1017CC00FFF708FF2846FFF7ABFE05A8FFF7A8FEBA
:1017DC0052E000240C2314206C60AC600793FEF7DD
:1017EC0056FC014618B1047044704460846004A82F
:1017FC000391FFF7EFFE224B08200893FEF747FCFE
:10180C00044628B1039B04A940F8043BFFF785FD6F
:10181C0000955FFA8AF34A46414638460994FFF729
:10182C0021F920B9039B5B7803F0FF0283B1039B82
:10183C0004A906A80593FFF770FD05A93046FFF72C
:10184C0099FE06A8FFF753FD04A8FFF750FD13E01F
:10185C004FF69C7305A903A80592ADF81830FFF755
:10186C00FDFE05A8FFF75CFE05A80999FFF793FE9E
:10187C0006A8FFF73CFDDAE730460BB0BDE8F08F69
:10188C00011A0A08022AF8B5044606D0032A17D012
:10189C00012A22D10B6803601FE018200E68FEF7A6
:1018AC00F6FB054650B13146FFF7C8FE3069B6F974
:1018BC00147008B100F05CFE2861AF8225600CE06A
:1018CC00046854B104F11000FFF72AFE2046FFF71C
:1018DC0040FD1821204600F08DFC0020F8BD38B5E5
:1018EC00002383608B6804460D462BB10222984777
:1018FC00EB68E360AB68A360204638BD022A70B584
:10190C00044606D0032A11D0012A18D10B680360B3
:10191C0015E014200E68FEF7BAFB054620B13146DF
:10192C00FFF7DDFF337C2B74256008E0046834B1CD
:10193C002046FFF70EFD1421204600F05BFC002032
:10194C0070BD0000F0B50C46BFF35F8F87B000236D
:10195C0050E8006F40E80032002AF9D1BFF35F8FE6
:10196C00002E3FD01846FEF7F9FF074620B121465E
:10197C003046FFF753FE2EE0314601A8FFF7AFFFCC
:10198C00237810208DF81430FEF781FB0546D0B17A
:10199C0087601420FEF77BFB044678B18760014614
:1019AC0001A8FFF7E5FC039BA268A360049B0392CC
:1019BC00E268E3609DF81430049223740A4B2C60A7
:1019CC00EB600A4BAB6001A8FFF7C3FC0022294671
:1019DC000748FEF7CBFF3046FFF7BBFC1021304623
:1019EC0000F008FC07B0F0BD3B160A0809190A08FC
:1019FC00E91D0A0830B5044685B00D466846114607
:101A0C00FFF7C9FD7CB124B228460DB100F0B0FD42
:101A1C00029002A96846ADF80C40FFF71FFE02A821
:101A2C00FFF77EFD1DE04FF0010200988DF8084095
:101A3C00D0E84F3FA34203D1C0E8412F0029F7D192
:101A4C0002D08DF808300CE010F10C014FF00103BE
:101A5C0018BF0373BFF35F8F043000F8033CFFF72C
:101A6C0071FF01A8FFF743FC05B030BD704710B5FE
:101A7C000446182100F0BEFB204610BDF8B50F46F9
:101A8C0000F10806051D002416F8011D0A2238462F
:101A9C00FFF708FCAE42044407D0002CF4D02E21F2
:101AAC003846FFF7E6FB0444EEE72046F8BD00009D
:101ABC0010B50446044B112240F8043B002100F001
:101ACC0014FD204610BD00BF282A0A080346074A09
:101ADC0010B543F8042B01F1100251F8044B91425C
:101AEC0043F8044BF9D10A781A7010BD282A0A0859
:101AFC00024A41600260042202757047282A0A08D3
:101B0C0010B59DF8084044EA032343EA024242EA36
:101B1C00016104234160037510BD000037B5044D0D
:101B2C0005609DF818500095FFF7EAFF03B030BD33
:101B3C00282A0A0841747047704708B50021007CB8
:101B4C00FEF7CCFE30EA200028BF4FF0FF3008BD76
:101B5C0008B50121007CFEF7C1FE30EA200028BF49
:101B6C004FF0FF3008BD08B5007CFEF7AFFE20EA51
:101B7C00E07008BD08B5007CFEF7A0FE20EAE0701E
:101B8C0008BD007CFEF7BABE10B50446142100F067
:101B9C0031FB204610BD38B50446007C0D46FEF7DF
:101BAC0095FE002801DC607C28B12946207CFEF7DC
:101BBC009DFE20EAE07038BD10B50446002363603A
:101BCC004FF47A73A360054B0846236001232174FC
:101BDC0063741146FEF762FE204610BD3C2A0A08CB
:101BEC000022007CFEF762BE10B5044614220021D0
:101BFC0000F07BFC054B20466360054BE36040F234
:101C0C00011323818123238210BD00BFD505002041
:101C1C005405002030B50E4D87B001A8FFF7E4FF46
:101C2C00296811F0010410D12846FEF734FA60B18E
:101C3C0001AA21460748FFF7BFFF2846FEF730FAF6
:101C4C00054A0649034800F0C7FA024807B030BD00
:101C5C0050050020D80600208C000020451B0A08E7
:101C6C0010B504461422002100F03FFC054B204621
:101C7C006360054BE36040F20113238181232382CF
:101C8C0010BD00BF88070020F006002010B50E4CD8
:101C9C0086B001A8FFF7E4FF2368DB0710D42046C9
:101CAC00FEF7F9F960B101AA01210848FFF784FF9A
:101CBC002046FEF7F5F9064A0649044800F08CFA6E
:101CCC00024806B010BD00BFEC06002074070020CF
:101CDC008C000020451B0A0870474174704708B5FA
:101CEC00007CFEF759FD20EAE07008BD08B5007CC9
:101CFC00FEF72AFD20EAE07008BD08B5007CFEF76F
:101D0C0033FD30EA200028BF4FF0FF3008BD08B586
:101D1C00007CFEF721FD30EA200028BF4FF0FF3099
:101D2C0008BD007CFEF728BD10B50446142100F058
:101D3C0061FA204610BD70B5457C04460E4625B9A7
:101D4C00007CFEF729FD002805DD3146207CBDE82E
:101D5C007040FEF7F1BC284670BD000010B504467B
:101D6C0008461146002262604FF47A72A260054A5E
:101D7C0020742260012262741A46FEF7D5FC2046BC
:101D8C0010BD00BF6C2A0A08007CFEF7FDBC0000E9
:101D9C0038B50C4D296811F0010411D12846FEF715
:101DAC007AF968B1084A2146084B0948FFF7D6FF73
:101DBC002846FEF775F9074A0749054800F00CFA62
:101DCC00034838BD2409002028090020A008002061
:101DDC008C0800208C000020E51C0A0810B58368D4
:101DEC0004460BB900F019FAC3689847A3681BB1F5
:101DFC0003222146204698472046BDE8104010217A
:101E0C0000F0F8B97047F8B5064615460C468F1821
:101E1C00BC4206D0336814F8011B9B6830469847C7
:101E2C00F6E72846F8BD0022007CFEF7BDBC002179
:101E3C00007CFEF7C1BC0021007CFEF7C5BC002174
:101E4C00007CFEF7C9BC0021007CFEF7CDBC10B5B0
:101E5C000446142100F0CEF9204610BD10B50446FE
:101E6C00002363604FF47A73A360044B217408461B
:101E7C0023601146FEF7C8FC204610BD9C2A0A08B8
:101E8C000021007CFEF7B8BC002211464068FEF72A
:101E9C00A1BDF0B5164689B011220F4604460021AB
:101EAC0003A800F022FB304600F07DFB00250095D6
:101EBC0081B27B6803AA3046FEF730FD20B129467B
:101ECC002046FFF715FE03E003A92046FFF7FEFDB1
:101EDC00204609B0F0BD002211464068FEF79ABDBD
:101EEC00002211464068FEF7A5BD00224068FEF7AF
:101EFC0099BD002281F001014068FEF783BD0023EB
:101F0C001A4619464068FEF775BD00221146406816
:101F1C00FEF750BD002202214068FEF753BD00239E
:101F2C001A464068FEF73EBD024B04225A60024A34
:101F3C001A607047AC090020C42A0A0800231A460C
:101F4C004068FEF72FBD002202214068FEF73ABD23
:101F5C00002211464068FEF72DBD00221146406854
:101F6C00FEF738BD00231A4619464068FEF73ABD05
:101F7C0000231A4619464068FEF73CBD002281F04A
:101F8C0001014068FEF73EBD00224068FEF74ABDE5
:101F9C00002211464068FEF74DBD002211464068F4
:101FAC00FEF738BD70B516468EB0044608A8FFF78C
:101FBC007FFD1122002103A800F097FA304600F0B3
:101FCC00F2FA00250A4B009581B25B6803AA3046F1
:101FDC00FEF7A4FC20B129462046FFF789FD03E05B
:101FEC0003A92046FFF772FD20460EB070BD00BF5E
:101FFC00AC090020034B044A04280CBF10461846B9
:10200C00704700BFB4090020AC090020024B034A02
:10201C001A6000225A607047B4090020F82A0A0896
:10202C0010B5044600F060F8FEF786FD28B1A4F167
:10203C000D03022B01D8002010BD00F0A7F8FFF70C
:10204C001FFF08B1012CF6D9FFF7A2FEFFF79CFE8B
:10205C0018B1A4F11203012BEDD9172C8CBF002061
:10206C00012010BD172838B504460D460AD8FF29A3
:10207C0008D0FFF7D5FF28B129462046BDE83840E7
:10208C00FEF702BB38BD38B504460D46FEF704FB1F
:10209C00FF2810D0062804D84D2323FA00F0C307DC
:1020AC0009D42046FFF7BCFF28B129462046BDE8DD
:1020BC003840FEF7F9BA38BD10B5044609289CBF64
:1020CC000A34A4B22046FFF7ABFF50B103212046DF
:1020DC00FEF7D2FA032804D12046BDE81040FEF7E3
:1020EC00EBBA002010BD000038B50B4D296811F07B
:1020FC0001040FD12846FDF7CEFF58B12146074801
:10210C00FEF706FD2846FDF7CBFF054A05490348B7
:10211C0000F062F8014838BDCC090020BC09002051
:10212C008C000020F10A0A0813B5084C00231A464B
:10213C00194600932046FFF7F1FC2046044A054956
:10214C0002B0BDE8104000F047B800BFD409002031
:10215C008C000020791A0A0870B5044614252A460A
:10216C00094E002100F0C1F9258020253146A560DB
:10217C002561284600F040F831466060284600F0A2
:10218C003BF8E060204670BD242B0A0830B50E4D9C
:10219C0087B0296811F0010413D12846FDF77BFFA5
:1021AC0078B101A8FFF7D8FF01AA21460748FFF72D
:1021BC0055FE2846FDF774FF054A0649034800F012
:1021CC000BF8024807B030BDEC090020F0090020E4
:1021DC008C000020111E0A080B460146184600F020
:1021EC006BB90000024B1868BFF35F8F704700BFDC
:1021FC00040A0020FDF74DBF00F000B810B5002810
:10220C0014BF044601242046FEF73CFC20B9FFF71E
:10221C00E9FF08B18047F6E710BD08B5FEF752FCA0
:10222C00184B1A68D1075CBF01221A60164B1A684A
:10223C00D2075CBF01221A60144B1A68D0075CBF2E
:10224C0001221A60124B1A68D1075CBF01221A6076
:10225C00104B1A68D2075CBF01221A600E4B1A6829
:10226C00D0075CBF01221A600C4B1A68D1075CBF07
:10227C0001221A600A4B1A68D2075CBF01221A604D
:10228C00704700BF240A0020200A00201C0A0020EE
:10229C00180A0020140A0020100A00200C0A002042
:1022AC00080A0020244B1A68D0075CBF01221A6070
:1022BC00224B1A68D1075CBF01221A60204B1A68A6
:1022CC00D2075CBF01221A601E4B1A68D0075CBF94
:1022DC0001221A601C4B1A68D1075CBF01221A60DC
:1022EC001A4B1A68D2075CBF01221A60184B1A6885
:1022FC00D0075CBF01221A60164B1A68D1075CBF6D
:10230C0001221A60144B1A68D2075CBF01221A60B2
:10231C00124B1A68D0075CBF01221A60104B1A6866
:10232C00D1075CBF01221A600E4B1A68D2075CBF42
:10233C0001221A60704700BF540A0020500A002086
:10234C004C0A0020480A0020440A0020400A0020C1
:10235C003C0A0020380A0020340A0020300A0020F1
:10236C002C0A0020280A0020244B1A68D0075CBFD6
:10237C0001221A60224B1A68D1075CBF01221A6035
:10238C00204B1A68D2075CBF01221A601E4B1A68D8
:10239C00D0075CBF01221A601C4B1A68D1075CBFC6
:1023AC0001221A601A4B1A68D2075CBF01221A600C
:1023BC00184B1A68D0075CBF01221A60164B1A68BA
:1023CC00D1075CBF01221A60144B1A68D2075CBF9C
:1023DC0001221A60124B1A68D0075CBF01221A60E6
:1023EC00104B1A68D1075CBF01221A600E4B1A6899
:1023FC00D2075CBF01221A60704700BF840A00201C
:10240C00800A00207C0A0020780A0020740A002030
:10241C00700A00206C0A0020680A0020640A002060
:10242C00600A00205C0A0020580A0020184B1A6829
:10243C00D1075CBF01221A60164B1A68D2075CBF29
:10244C0001221A60144B1A68D0075CBF01221A6073
:10245C00124B1A68D1075CBF01221A60104B1A6824
:10246C00D2075CBF01221A600E4B1A68D0075CBF02
:10247C0001221A600C4B1A68D1075CBF01221A604A
:10248C000A4B1A68D2075CBF01221A60704700BF62
:10249C00A40A0020A00A00209C0A0020980A002010
:1024AC00940A0020900A00208C0A0020880A002040
:1024BC000A22002100F020B910B5054C13462CB1AE
:1024CC000A4601460220AFF3008010BD204610BD25
:1024DC000000000010B5431E0A44914204D011F8CC
:1024EC00014B03F8014FF8E710BD03460244934239
:1024FC0002D003F8011BFAE77047000038B5124B05
:10250C0005461C68A36BD3B91820FEF7BBFA43F23F
:10251C000E33A06303804AF6CD33438041F234235B
:10252C0083804EF26D63C3804DF6EC63038105230B
:10253C0043810B23838101220023C0E90423A36B75
:10254C0000221D615A6138BD8800002010F8012B53
:10255C0011F8013B012A28BF9A42F7D0D01A7047D4
:10256C00034611F8012B03F8012B002AF9D170470F
:10257C00024B0146186800F003B800BF8800002029
:10258C0070B5064608460C4600F00DF8451C294669
:10259C003046FEF79FFA064618B12A462146FFF749
:1025AC0099FF304670BD034613F8012B002AFBD16E
:1025BC00181A01387047F0B5037863B90B78002B03
:1025CC0018BF0020F0BD15F8012F62B114F8017F7F
:1025DC0030469742F7D00346461C007810B14D1E8A
:1025EC005C1EF0E7F0BD1846F0BD00002DE9F04789
:1025FC000F4680463F48D0F800903D4615F8014BF9
:10260C0009EB0400407800F0080000F0FF0608B168
:10261C002F46F2E72D2C03D1BD1C7C78012603E05C
:10262C002B2C04BF7C78BD1C13B1102B0AD15BE0A2
:10263C00302C57D1287800F0DF0058284DD16C7819
:10264C0010230235002E14BF4FF0004C6FF0004CDD
:10265C00BCFBF3FA0027384603FB1ACC09EB040E3B
:10266C009EF801E01EF0040F01D0303C0BE01EF090
:10267C00030E1BD0BEF1010F0CBF4FF0370E4FF005
:10268C00570ECEEB0404A34210DDB7F1FF3F0AD086
:10269C00504506D801D1644503DC03FB00400127FB
:1026AC0001E04FF0FF3715F8014BD7E77B1C0CD13D
:1026BC00002E4FF0220314BF4FF000406FF000408B
:1026CC00C8F800302AB9BDE8F08706B1404272B1B3
:1026DC0007B1691E1160BDE8F0873024002BB1D121
:1026EC000823AFE70A23ADE7302CA3D0AAE7BDE857
:1026FC00F08700BF2400002013460A46014602481A
:10270C000068FFF773BF00BF880000201D000A0897
:10271C005D000A0889000A088D000A080000000004
:10272C00415F726561640053657475702066696EF3
:10273C00697368656400696E20646F2D6C696768E5
:10274C00740038426C625A3554564469334773628C
:10275C00634D4A65413734426349556C784E416C40
:10276C0046357832446D6B48764F002F6170692F77
:10277C0025732F6C69676874732F25642F737461CC
:10278C007465007B226F6E223A66616C73657D0006
:10279C007B226F6E223A747275657D003139322E50
:1027AC003136382E37372E32300050555400616692
:1027BC00746572206874747020707574006265663C
:1027CC006F726520646F2D6C696768740041667464
:1027DC00657220646F2D6C69676874006F6E2000E1
:1027EC006F666600436F6E74656E742D54797065F8
:1027FC00006170706C69636174696F6E2F782D77EE
:10280C0077772D666F726D2D75726C656E636F6464
:10281C00656400416363657074002A2F2A002048A8
:10282C005454502F312E300D0A00636C6F736500B9
:10283C00436F6E6E656374696F6E00484F5354003E
:10284C00436F6E74656E742D4C656E6774680050C2
:10285C004F5354000D0A0D0A000000000000000048
:10286C0000000000F10A0A08090B0A080000000029
:10287C0000000000E10B0A08E70B0A08FF0F0A082A
:10288C00F50B0A08E30B0A0800000000000000002A
:10289C0001010A082D010A089D0B0A08B70B0A084A
:1028AC00FD0C0A08670C0A08390C0A08DF0B0A0829
:1028BC00A90D0A0819100A089B0C0A08750D0A08BC
:1028CC00F70E0A08490F0A08C70B0A08BB0E0A08BC
:1028DC00190C0A08776972696E6700544350436C8F
:1028EC0069656E7420736F636B65743D2578006247
:1028FC006175640053657269616C00555342536590
:10290C007269616C31007479706500706172616D0F
:10291C0000636D6400696400686E64007374726DAA
:10292C000066696C74006C766C0061646448616E5E
:10293C00646C65720072656D6F766548616E646C6F
:10294C00657200656E756D48616E646C65727300BE
:10295C004A534F4E53747265616D4C6F6748616E8C
:10296C00646C657200617070002530313075200028
:10297C005D20002564002C200028293A2000205BD3
:10298C0000636F6465203D200025690064657461F7
:10299C00696C73203D20006C6E00666E00636F6482
:1029AC00650064657461696C006E6F6E65007472AD
:1029BC0061636500696E666F007761726E006572A7
:1029CC00726F720070616E696300616C6C005A000A
:1029DC00252B3033643A253032750025592D256D61
:1029EC002D25645425483A254D3A2553257A006106
:1029FC00736374696D650000000000000000000046
:102A0C00F1140A08F7140A083B150A0805150A08F8
:102A1C00F3140A080000000000000000891A0A08DC
:102A2C00791A0A087B1A0A0800000000000000004E
:102A3C00451B0A08951B0A08A31B0A082B120A0837
:102A4C00811B0A08471B0A085D1B0A088F1B0A0812
:102A5C00731B0A08411B0A0800000000000000005C
:102A6C00E51C0A08351D0A08431D0A082B120A0822
:102A7C00F91C0A081B1D0A08071D0A082F1D0A0845
:102A8C00E71C0A08EB1C0A0800000000000000000C
:102A9C00111E0A085B1E0A08331E0A08131E0A08B8
:102AAC003B1E0A08431E0A084B1E0A08531E0A083E
:102ABC0000000000000000002B1F0A08211F0A085C
:102ACC00171F0A08951E0A08EF120A080B1F0A089E
:102ADC00FF1E0A08F71E0A08ED1E0A08E31E0A0864
:102AEC009F1E0A080000000000000000491F0A0891
:102AFC00531F0A085D1F0A08671F0A08711F0A087E
:102B0C007D1F0A08891F0A08951F0A089D1F0A08BD
:102B1C00A71F0A08B11F0A0800002020202020202F
:102B2C002020202828282828202020202020202071
:102B3C002020202020202020202088101010101071
:102B4C0010101010101010101010040404040404C1
:102B5C0004040404101010101010104141414141A4
:102B6C004101010101010101010101010101010109
:102B7C00010101010110101010101042424242429A
:102B8C0042020202020202020202020202020202D9
:102B9C0002020202021010101020000000000000BF
:102BAC000000000000000000000000000000000019
:102BBC000000000000000000000000000000000009
:102BCC0000000000000000000000000000000000F9
:102BDC0000000000000000000000000000000000E9
:102BEC0000000000000000000000000000000000D9
:102BFC0000000000000000000000000000000000C9
:102C0C0000000000000000000000000000000000B8
:102C1C0000000000000000000000000000000000A8
:102C2C000000000000000000000000000000000098
:102C3C000000000000000000000000000000000088
:102C4C000000000000000000000000000000000078
:102C5C000000000000000000000000000000000068
:102C6C000000000000000000000000000000000058
:102C7C000000000000000000000000004300000005
:102C8C001D030A0839040A08690B0A0835130A08D7
:102C9C0045130A089D130A08351F0A0819200A084B
:102CAC0035210A082D220A08B1220A0875230A08C0
:042CBC0039240A08A5
:042CC0000000000010
:102CC40005000000F0270A08FD270A081F280A0843
:102CD40026280A0800000000000000000700000089
:102CE400FB290A08252B0A0800000000282C0A08E2
:102CF400482C0A08682C0A080000000000000000A4
:102D04000000000000000000882C0A0800000000F9
:102D140000000000000000000000000000000000AF
:102D2400000000000000000000000000000000009F
:102D3400000000000000000000000000000000008F
:0C2D44000000000000000000280000203B
:102D5000FFFFFFFF00000102030405060708090A40
:102D60000B0C0D0E0F101112131415161718191A3B
:082D70001B1C1D1E1F20280082
:042D78007856341243
:04000005080A001CC9
:00000001FF
